{
  "address": "0xe7f1725E7734CE288F8367e1Bb143E90bb3F0512",
  "abi": [
    {
      "inputs": [
        {
          "internalType": "address",
          "name": "s_priceFeedAddress",
          "type": "address"
        }
      ],
      "stateMutability": "nonpayable",
      "type": "constructor"
    },
    {
      "inputs": [],
      "name": "FundMe__NotOwner",
      "type": "error"
    },
    {
      "stateMutability": "payable",
      "type": "fallback"
    },
    {
      "inputs": [],
      "name": "expensive_withdraw",
      "outputs": [],
      "stateMutability": "nonpayable",
      "type": "function"
    },
    {
      "inputs": [],
      "name": "fund",
      "outputs": [],
      "stateMutability": "payable",
      "type": "function"
    },
    {
      "inputs": [
        {
          "internalType": "address",
          "name": "funder",
          "type": "address"
        }
      ],
      "name": "getAdressToAmountFunded",
      "outputs": [
        {
          "internalType": "uint256",
          "name": "",
          "type": "uint256"
        }
      ],
      "stateMutability": "view",
      "type": "function"
    },
    {
      "inputs": [
        {
          "internalType": "uint256",
          "name": "index",
          "type": "uint256"
        }
      ],
      "name": "getFunder",
      "outputs": [
        {
          "internalType": "address",
          "name": "",
          "type": "address"
        }
      ],
      "stateMutability": "view",
      "type": "function"
    },
    {
      "inputs": [],
      "name": "getOwner",
      "outputs": [
        {
          "internalType": "address",
          "name": "",
          "type": "address"
        }
      ],
      "stateMutability": "view",
      "type": "function"
    },
    {
      "inputs": [],
      "name": "getPriceFeed",
      "outputs": [
        {
          "internalType": "contract AggregatorV3Interface",
          "name": "",
          "type": "address"
        }
      ],
      "stateMutability": "view",
      "type": "function"
    },
    {
      "inputs": [],
      "name": "withdraw",
      "outputs": [],
      "stateMutability": "nonpayable",
      "type": "function"
    },
    {
      "stateMutability": "payable",
      "type": "receive"
    }
  ],
  "transactionHash": "0xe5ba8192650a631ff0afcf7b70364227d65cf0c270ba2a6ae05f4ec17af872c8",
  "args": [
    "0x5FbDB2315678afecb367f032d93F642f64180aa3"
  ],
  "numDeployments": 1,
  "solcInputHash": "b0ef0183c73d7683921b2660c4697fa1",
  "bytecode": "0x60a06040523480156200001157600080fd5b506040516200117e3803806200117e83398181016040528101906200003791906200011d565b3373ffffffffffffffffffffffffffffffffffffffff1660808173ffffffffffffffffffffffffffffffffffffffff168152505080600260006101000a81548173ffffffffffffffffffffffffffffffffffffffff021916908373ffffffffffffffffffffffffffffffffffffffff160217905550506200014f565b600080fd5b600073ffffffffffffffffffffffffffffffffffffffff82169050919050565b6000620000e582620000b8565b9050919050565b620000f781620000d8565b81146200010357600080fd5b50565b6000815190506200011781620000ec565b92915050565b600060208284031215620001365762000135620000b3565b5b6000620001468482850162000106565b91505092915050565b60805161100562000179600039600081816102d001528181610570015261065001526110056000f3fe6080604052600436106100745760003560e01c80639e87a5cd1161004e5780639e87a5cd1461010c578063b60d428814610137578063d7b4750c14610141578063e78d1e1d1461017e57610083565b80633ccfd60b1461008d578063893d20e8146100a45780639a59cd9e146100cf57610083565b3661008357610081610195565b005b61008b610195565b005b34801561009957600080fd5b506100a26102ce565b005b3480156100b057600080fd5b506100b961056c565b6040516100c69190610a3d565b60405180910390f35b3480156100db57600080fd5b506100f660048036038101906100f19190610a89565b610594565b6040516101039190610acf565b60405180910390f35b34801561011857600080fd5b506101216105dd565b60405161012e9190610b49565b60405180910390f35b61013f610195565b005b34801561014d57600080fd5b5061016860048036038101906101639190610b90565b610607565b6040516101759190610a3d565b60405180910390f35b34801561018a57600080fd5b5061019361064e565b005b670de0b6b3a76400006101d3600260009054906101000a900473ffffffffffffffffffffffffffffffffffffffff163461088890919063ffffffff16565b11610213576040517f08c379a000000000000000000000000000000000000000000000000000000000815260040161020a90610c1a565b60405180910390fd5b6000339080600181540180825580915050600190039060005260206000200160009091909190916101000a81548173ffffffffffffffffffffffffffffffffffffffff021916908373ffffffffffffffffffffffffffffffffffffffff16021790555034600160003373ffffffffffffffffffffffffffffffffffffffff1673ffffffffffffffffffffffffffffffffffffffff16815260200190815260200160002060008282546102c59190610c69565b92505081905550565b7f000000000000000000000000000000000000000000000000000000000000000073ffffffffffffffffffffffffffffffffffffffff163373ffffffffffffffffffffffffffffffffffffffff1614610353576040517f579610db00000000000000000000000000000000000000000000000000000000815260040160405180910390fd5b6000808054806020026020016040519081016040528092919081815260200182805480156103d657602002820191906000526020600020905b8160009054906101000a900473ffffffffffffffffffffffffffffffffffffffff1673ffffffffffffffffffffffffffffffffffffffff168152602001906001019080831161038c575b5050505050905060005b815181101561045b5760008282815181106103fe576103fd610c9d565b5b602002602001015190506000600160008373ffffffffffffffffffffffffffffffffffffffff1673ffffffffffffffffffffffffffffffffffffffff168152602001908152602001600020819055505080806001019150506103e0565b50600067ffffffffffffffff81111561047757610476610ccc565b5b6040519080825280602002602001820160405280156104a55781602001602082028036833780820191505090505b50600090805190602001906104bb929190610955565b5060003373ffffffffffffffffffffffffffffffffffffffff16476040516104e290610d2c565b60006040518083038185875af1925050503d806000811461051f576040519150601f19603f3d011682016040523d82523d6000602084013e610524565b606091505b5050905080610568576040517f08c379a000000000000000000000000000000000000000000000000000000000815260040161055f90610d8d565b60405180910390fd5b5050565b60007f0000000000000000000000000000000000000000000000000000000000000000905090565b6000600160008373ffffffffffffffffffffffffffffffffffffffff1673ffffffffffffffffffffffffffffffffffffffff168152602001908152602001600020549050919050565b6000600260009054906101000a900473ffffffffffffffffffffffffffffffffffffffff16905090565b600080828154811061061c5761061b610c9d565b5b9060005260206000200160009054906101000a900473ffffffffffffffffffffffffffffffffffffffff169050919050565b7f000000000000000000000000000000000000000000000000000000000000000073ffffffffffffffffffffffffffffffffffffffff163373ffffffffffffffffffffffffffffffffffffffff16146106d3576040517f579610db00000000000000000000000000000000000000000000000000000000815260040160405180910390fd5b60005b6000805490508110156107785760008082815481106106f8576106f7610c9d565b5b9060005260206000200160009054906101000a900473ffffffffffffffffffffffffffffffffffffffff1690506000600160008373ffffffffffffffffffffffffffffffffffffffff1673ffffffffffffffffffffffffffffffffffffffff168152602001908152602001600020819055505080806001019150506106d6565b50600067ffffffffffffffff81111561079457610793610ccc565b5b6040519080825280602002602001820160405280156107c25781602001602082028036833780820191505090505b50600090805190602001906107d8929190610955565b5060003373ffffffffffffffffffffffffffffffffffffffff16476040516107ff90610d2c565b60006040518083038185875af1925050503d806000811461083c576040519150601f19603f3d011682016040523d82523d6000602084013e610841565b606091505b5050905080610885576040517f08c379a000000000000000000000000000000000000000000000000000000000815260040161087c90610d8d565b60405180910390fd5b50565b600080610894836108c4565b90506000670de0b6b3a764000085836108ad9190610dad565b6108b79190610e1e565b9050809250505092915050565b6000808273ffffffffffffffffffffffffffffffffffffffff1663feaf968c6040518163ffffffff1660e01b815260040160a060405180830381865afa158015610912573d6000803e3d6000fd5b505050506040513d601f19601f820116820180604052508101906109369190610edc565b5050509150506402540be4008161094d9190610f57565b915050919050565b8280548282559060005260206000209081019282156109ce579160200282015b828111156109cd5782518260006101000a81548173ffffffffffffffffffffffffffffffffffffffff021916908373ffffffffffffffffffffffffffffffffffffffff16021790555091602001919060010190610975565b5b5090506109db91906109df565b5090565b5b808211156109f85760008160009055506001016109e0565b5090565b600073ffffffffffffffffffffffffffffffffffffffff82169050919050565b6000610a27826109fc565b9050919050565b610a3781610a1c565b82525050565b6000602082019050610a526000830184610a2e565b92915050565b600080fd5b610a6681610a1c565b8114610a7157600080fd5b50565b600081359050610a8381610a5d565b92915050565b600060208284031215610a9f57610a9e610a58565b5b6000610aad84828501610a74565b91505092915050565b6000819050919050565b610ac981610ab6565b82525050565b6000602082019050610ae46000830184610ac0565b92915050565b6000819050919050565b6000610b0f610b0a610b05846109fc565b610aea565b6109fc565b9050919050565b6000610b2182610af4565b9050919050565b6000610b3382610b16565b9050919050565b610b4381610b28565b82525050565b6000602082019050610b5e6000830184610b3a565b92915050565b610b6d81610ab6565b8114610b7857600080fd5b50565b600081359050610b8a81610b64565b92915050565b600060208284031215610ba657610ba5610a58565b5b6000610bb484828501610b7b565b91505092915050565b600082825260208201905092915050565b7f53656e64206d6f72652045544821000000000000000000000000000000000000600082015250565b6000610c04600e83610bbd565b9150610c0f82610bce565b602082019050919050565b60006020820190508181036000830152610c3381610bf7565b9050919050565b7f4e487b7100000000000000000000000000000000000000000000000000000000600052601160045260246000fd5b6000610c7482610ab6565b9150610c7f83610ab6565b9250828201905080821115610c9757610c96610c3a565b5b92915050565b7f4e487b7100000000000000000000000000000000000000000000000000000000600052603260045260246000fd5b7f4e487b7100000000000000000000000000000000000000000000000000000000600052604160045260246000fd5b600081905092915050565b50565b6000610d16600083610cfb565b9150610d2182610d06565b600082019050919050565b6000610d3782610d09565b9150819050919050565b7f63616c6c206661696c6564000000000000000000000000000000000000000000600082015250565b6000610d77600b83610bbd565b9150610d8282610d41565b602082019050919050565b60006020820190508181036000830152610da681610d6a565b9050919050565b6000610db882610ab6565b9150610dc383610ab6565b9250828202610dd181610ab6565b91508282048414831517610de857610de7610c3a565b5b5092915050565b7f4e487b7100000000000000000000000000000000000000000000000000000000600052601260045260246000fd5b6000610e2982610ab6565b9150610e3483610ab6565b925082610e4457610e43610def565b5b828204905092915050565b600069ffffffffffffffffffff82169050919050565b610e6e81610e4f565b8114610e7957600080fd5b50565b600081519050610e8b81610e65565b92915050565b6000819050919050565b610ea481610e91565b8114610eaf57600080fd5b50565b600081519050610ec181610e9b565b92915050565b600081519050610ed681610b64565b92915050565b600080600080600060a08688031215610ef857610ef7610a58565b5b6000610f0688828901610e7c565b9550506020610f1788828901610eb2565b9450506040610f2888828901610ec7565b9350506060610f3988828901610ec7565b9250506080610f4a88828901610e7c565b9150509295509295909350565b6000610f6282610e91565b9150610f6d83610e91565b9250828202610f7b81610e91565b91507f80000000000000000000000000000000000000000000000000000000000000008414600084121615610fb357610fb2610c3a565b5b8282058414831517610fc857610fc7610c3a565b5b509291505056fea26469706673582212208ee6a5efd140d253209ad6dc0550bfcccaf62a8bb4b54371ae2c4ac1d0c4432464736f6c63430008180033",
  "devdoc": {
    "author": "Piotr Gąsiorek",
    "details": "The contract has a minimum amount of USD that can be funded",
    "kind": "dev",
    "methods": {},
    "title": "FundMe",
    "version": 1
  },
  "userdoc": {
    "kind": "user",
    "methods": {},
    "notice": "This contract allows to fund the contract with a minimum amount of USD",
    "version": 1
  },
  "storageLayout": {
    "storage": [
      {
        "astId": 64,
        "contract": "contracts/FundMe.sol:FundMe",
        "label": "s_funders",
        "offset": 0,
        "slot": "0",
        "type": "t_array(t_address)dyn_storage"
      },
      {
        "astId": 68,
        "contract": "contracts/FundMe.sol:FundMe",
        "label": "s_addressToAmountFunded",
        "offset": 0,
        "slot": "1",
        "type": "t_mapping(t_address,t_uint256)"
      },
      {
        "astId": 71,
        "contract": "contracts/FundMe.sol:FundMe",
        "label": "s_priceFeed",
        "offset": 0,
        "slot": "2",
        "type": "t_contract(AggregatorV3Interface)45"
      }
    ],
    "types": {
      "t_address": {
        "encoding": "inplace",
        "label": "address",
        "numberOfBytes": "20"
      },
      "t_array(t_address)dyn_storage": {
        "base": "t_address",
        "encoding": "dynamic_array",
        "label": "address[]",
        "numberOfBytes": "32"
      },
      "t_contract(AggregatorV3Interface)45": {
        "encoding": "inplace",
        "label": "contract AggregatorV3Interface",
        "numberOfBytes": "20"
      },
      "t_mapping(t_address,t_uint256)": {
        "encoding": "mapping",
        "key": "t_address",
        "label": "mapping(address => uint256)",
        "numberOfBytes": "32",
        "value": "t_uint256"
      },
      "t_uint256": {
        "encoding": "inplace",
        "label": "uint256",
        "numberOfBytes": "32"
      }
    }
  }
}